{
  "contractName": "Kahaaniya",
  "abi": [
    {
      "inputs": [],
      "payable": false,
      "stateMutability": "nonpayable",
      "type": "constructor"
    },
    {
      "anonymous": false,
      "inputs": [
        {
          "indexed": false,
          "internalType": "uint256",
          "name": "id",
          "type": "uint256"
        },
        {
          "indexed": false,
          "internalType": "string",
          "name": "title",
          "type": "string"
        },
        {
          "indexed": false,
          "internalType": "string",
          "name": "storyText",
          "type": "string"
        },
        {
          "indexed": false,
          "internalType": "uint256",
          "name": "price",
          "type": "uint256"
        },
        {
          "indexed": false,
          "internalType": "address payable",
          "name": "owner",
          "type": "address"
        },
        {
          "indexed": false,
          "internalType": "bool",
          "name": "purchased",
          "type": "bool"
        }
      ],
      "name": "StoryCreated",
      "type": "event"
    },
    {
      "anonymous": false,
      "inputs": [
        {
          "indexed": false,
          "internalType": "uint256",
          "name": "id",
          "type": "uint256"
        },
        {
          "indexed": false,
          "internalType": "string",
          "name": "title",
          "type": "string"
        },
        {
          "indexed": false,
          "internalType": "string",
          "name": "storyText",
          "type": "string"
        },
        {
          "indexed": false,
          "internalType": "uint256",
          "name": "price",
          "type": "uint256"
        },
        {
          "indexed": false,
          "internalType": "address payable",
          "name": "owner",
          "type": "address"
        },
        {
          "indexed": false,
          "internalType": "bool",
          "name": "purchased",
          "type": "bool"
        }
      ],
      "name": "StoryPurchased",
      "type": "event"
    },
    {
      "constant": true,
      "inputs": [
        {
          "internalType": "uint256",
          "name": "",
          "type": "uint256"
        }
      ],
      "name": "stories",
      "outputs": [
        {
          "internalType": "uint256",
          "name": "id",
          "type": "uint256"
        },
        {
          "internalType": "string",
          "name": "title",
          "type": "string"
        },
        {
          "internalType": "string",
          "name": "storyText",
          "type": "string"
        },
        {
          "internalType": "uint256",
          "name": "price",
          "type": "uint256"
        },
        {
          "internalType": "address payable",
          "name": "owner",
          "type": "address"
        },
        {
          "internalType": "bool",
          "name": "purchased",
          "type": "bool"
        }
      ],
      "payable": false,
      "stateMutability": "view",
      "type": "function"
    },
    {
      "constant": true,
      "inputs": [],
      "name": "storyCount",
      "outputs": [
        {
          "internalType": "uint256",
          "name": "",
          "type": "uint256"
        }
      ],
      "payable": false,
      "stateMutability": "view",
      "type": "function"
    },
    {
      "constant": false,
      "inputs": [
        {
          "internalType": "string",
          "name": "_title",
          "type": "string"
        },
        {
          "internalType": "uint256",
          "name": "_price",
          "type": "uint256"
        },
        {
          "internalType": "string",
          "name": "_storyText",
          "type": "string"
        }
      ],
      "name": "createStory",
      "outputs": [],
      "payable": false,
      "stateMutability": "nonpayable",
      "type": "function"
    },
    {
      "constant": false,
      "inputs": [
        {
          "internalType": "uint256",
          "name": "_id",
          "type": "uint256"
        }
      ],
      "name": "purchaseStory",
      "outputs": [],
      "payable": true,
      "stateMutability": "payable",
      "type": "function"
    }
  ],
  "bytecode": "0x608060405234801561001057600080fd5b50610f62806100206000396000f3fe60806040526004361061003f5760003560e01c80634c7e9ecc1461004457806378350ae11461006f5780638a3b6ab8146101d8578063edb1dc9c14610344575b600080fd5b34801561005057600080fd5b50610059610372565b6040518082815260200191505060405180910390f35b34801561007b57600080fd5b506101d66004803603606081101561009257600080fd5b81019080803590602001906401000000008111156100af57600080fd5b8201836020820111156100c157600080fd5b803590602001918460018302840111640100000000831117156100e357600080fd5b91908080601f016020809104026020016040519081016040528093929190818152602001838380828437600081840152601f19601f820116905080830192505050505050509192919290803590602001909291908035906020019064010000000081111561015057600080fd5b82018360208201111561016257600080fd5b8035906020019184600183028401116401000000008311171561018457600080fd5b91908080601f016020809104026020016040519081016040528093929190818152602001838380828437600081840152601f19601f820116905080830192505050505050509192919290505050610378565b005b3480156101e457600080fd5b50610211600480360360208110156101fb57600080fd5b8101908080359060200190929190505050610762565b6040518087815260200180602001806020018681526020018573ffffffffffffffffffffffffffffffffffffffff1673ffffffffffffffffffffffffffffffffffffffff16815260200184151515158152602001838103835288818151815260200191508051906020019080838360005b8381101561029d578082015181840152602081019050610282565b50505050905090810190601f1680156102ca5780820380516001836020036101000a031916815260200191505b50838103825287818151815260200191508051906020019080838360005b838110156103035780820151818401526020810190506102e8565b50505050905090810190601f1680156103305780820380516001836020036101000a031916815260200191505b509850505050505050505060405180910390f35b6103706004803603602081101561035a57600080fd5b81019080803590602001909291905050506108fb565b005b60005481565b60008351116103ef576040517f08c379a00000000000000000000000000000000000000000000000000000000081526004018080602001828103825260178152602001807f53746f72792073686f756c642068617665207469746c6500000000000000000081525060200191505060405180910390fd5b60008211610465576040517f08c379a000000000000000000000000000000000000000000000000000000000815260040180806020018281038252601c8152602001807f53746f72792073686f756c64206861766520736f6d652070726963650000000081525060200191505060405180910390fd5b60008151116104dc576040517f08c379a00000000000000000000000000000000000000000000000000000000081526004018080602001828103825260198152602001807f53746f72792073686f756c64206861766520636f6e74656e740000000000000081525060200191505060405180910390fd5b60008081548092919060010191905055506040518060c0016040528060005481526020018481526020018281526020018381526020013373ffffffffffffffffffffffffffffffffffffffff16815260200160001515815250600160008054815260200190815260200160002060008201518160000155602082015181600101908051906020019061056f929190610e3a565b50604082015181600201908051906020019061058c929190610e3a565b506060820151816003015560808201518160040160006101000a81548173ffffffffffffffffffffffffffffffffffffffff021916908373ffffffffffffffffffffffffffffffffffffffff16021790555060a08201518160040160146101000a81548160ff0219169083151502179055509050507fdf59244360edce73e01c54532aff454e4f95ff7d1ecb18b6845bc3f0455b4c9a6000548483853360006040518087815260200180602001806020018681526020018573ffffffffffffffffffffffffffffffffffffffff1673ffffffffffffffffffffffffffffffffffffffff16815260200184151515158152602001838103835288818151815260200191508051906020019080838360005b838110156106b757808201518184015260208101905061069c565b50505050905090810190601f1680156106e45780820380516001836020036101000a031916815260200191505b50838103825287818151815260200191508051906020019080838360005b8381101561071d578082015181840152602081019050610702565b50505050905090810190601f16801561074a5780820380516001836020036101000a031916815260200191505b509850505050505050505060405180910390a1505050565b6001602052806000526040600020600091509050806000015490806001018054600181600116156101000203166002900480601f0160208091040260200160405190810160405280929190818152602001828054600181600116156101000203166002900480156108145780601f106107e957610100808354040283529160200191610814565b820191906000526020600020905b8154815290600101906020018083116107f757829003601f168201915b505050505090806002018054600181600116156101000203166002900480601f0160208091040260200160405190810160405280929190818152602001828054600181600116156101000203166002900480156108b25780601f10610887576101008083540402835291602001916108b2565b820191906000526020600020905b81548152906001019060200180831161089557829003601f168201915b5050505050908060030154908060040160009054906101000a900473ffffffffffffffffffffffffffffffffffffffff16908060040160149054906101000a900460ff16905086565b610903610eba565b600160008381526020019081526020016000206040518060c001604052908160008201548152602001600182018054600181600116156101000203166002900480601f0160208091040260200160405190810160405280929190818152602001828054600181600116156101000203166002900480156109c45780601f10610999576101008083540402835291602001916109c4565b820191906000526020600020905b8154815290600101906020018083116109a757829003601f168201915b50505050508152602001600282018054600181600116156101000203166002900480601f016020809104026020016040519081016040528092919081815260200182805460018160011615610100020316600290048015610a665780601f10610a3b57610100808354040283529160200191610a66565b820191906000526020600020905b815481529060010190602001808311610a4957829003601f168201915b50505050508152602001600382015481526020016004820160009054906101000a900473ffffffffffffffffffffffffffffffffffffffff1673ffffffffffffffffffffffffffffffffffffffff1673ffffffffffffffffffffffffffffffffffffffff1681526020016004820160149054906101000a900460ff161515151581525050905060008160800151905060008260000151118015610b0f5750600054826000015111155b610b1857600080fd5b8160600151341015610b2957600080fd5b8160a0015115610b3857600080fd5b3373ffffffffffffffffffffffffffffffffffffffff168173ffffffffffffffffffffffffffffffffffffffff161415610b7157600080fd5b33826080019073ffffffffffffffffffffffffffffffffffffffff16908173ffffffffffffffffffffffffffffffffffffffff168152505060018260a00190151590811515815250508160016000858152602001908152602001600020600082015181600001556020820151816001019080519060200190610bf4929190610e3a565b506040820151816002019080519060200190610c11929190610e3a565b506060820151816003015560808201518160040160006101000a81548173ffffffffffffffffffffffffffffffffffffffff021916908373ffffffffffffffffffffffffffffffffffffffff16021790555060a08201518160040160146101000a81548160ff0219169083151502179055509050508073ffffffffffffffffffffffffffffffffffffffff166108fc349081150290604051600060405180830381858888f19350505050158015610ccc573d6000803e3d6000fd5b507f761733009709ba993270fc69120e844134ed4fbc9d931d0bdd468077e79869ee6000548360200151846040015185606001513360016040518087815260200180602001806020018681526020018573ffffffffffffffffffffffffffffffffffffffff1673ffffffffffffffffffffffffffffffffffffffff16815260200184151515158152602001838103835288818151815260200191508051906020019080838360005b83811015610d8f578082015181840152602081019050610d74565b50505050905090810190601f168015610dbc5780820380516001836020036101000a031916815260200191505b50838103825287818151815260200191508051906020019080838360005b83811015610df5578082015181840152602081019050610dda565b50505050905090810190601f168015610e225780820380516001836020036101000a031916815260200191505b509850505050505050505060405180910390a1505050565b828054600181600116156101000203166002900490600052602060002090601f016020900481019282601f10610e7b57805160ff1916838001178555610ea9565b82800160010185558215610ea9579182015b82811115610ea8578251825591602001919060010190610e8d565b5b509050610eb69190610f08565b5090565b6040518060c0016040528060008152602001606081526020016060815260200160008152602001600073ffffffffffffffffffffffffffffffffffffffff1681526020016000151581525090565b610f2a91905b80821115610f26576000816000905550600101610f0e565b5090565b9056fea265627a7a723158205a32d1a3e6bfde88fc6ab9c53481a81e1780c867135ced9f29b8d6cf3efc65bf64736f6c63430005100032",
  "source": "pragma solidity ^0.5.0;\r\n\r\ncontract Kahaaniya {\r\n\r\n    uint public storyCount;\r\n    mapping(uint => Story) public stories;\r\n\r\n    struct Story {\r\n        uint id;\r\n        string title;\r\n        string storyText;\r\n        uint price;\r\n        address payable owner;\r\n        bool purchased;\r\n    }\r\n\r\n    event StoryCreated(\r\n        uint id,\r\n        string title,\r\n        string storyText,\r\n        uint price,\r\n        address payable owner,\r\n        bool purchased\r\n    );\r\n\r\n    event StoryPurchased(\r\n        uint id,\r\n        string title,\r\n        string storyText,\r\n        uint price,\r\n        address payable owner,\r\n        bool purchased\r\n    );\r\n\r\n    constructor() public {\r\n    }\r\n\r\n    function createStory(string memory _title, uint _price, string memory _storyText) public {\r\n        // Require a valid title\r\n        require(bytes(_title).length > 0, \"Story should have title\");\r\n        // Require a valid price\r\n        require(_price > 0, \"Story should have some price\");\r\n        //require a valid story\r\n        require(bytes(_storyText).length > 0, \"Story should have content\");\r\n        // Increment story count\r\n        storyCount ++;\r\n        // Create the story\r\n        stories[storyCount] = Story(storyCount, _title, _storyText, _price, msg.sender, false);\r\n        // Trigger an event\r\n        emit StoryCreated(storyCount, _title, _storyText, _price, msg.sender, false);\r\n    }\r\n\r\n    function purchaseStory(uint _id) public payable {\r\n        // Fetch the product\r\n        Story memory _story = stories[_id];\r\n        // Fetch the owner\r\n        address payable _seller = _story.owner;\r\n        // Make sure the product has a valid id\r\n        require(_story.id > 0 && _story.id <= storyCount);\r\n        // Require that there is enough Ether in the transaction\r\n        require(msg.value >= _story.price);\r\n        // Require that the product has not been purchased already\r\n        require(!_story.purchased);\r\n        // Require that the buyer is not the seller\r\n        require(_seller != msg.sender);\r\n        // Transfer ownership to the buyer\r\n        _story.owner = msg.sender;\r\n        // Mark as purchased\r\n        _story.purchased = true;\r\n        // Update the product\r\n        stories[_id] = _story;\r\n        // Pay the seller by sending them Ether\r\n        address(_seller).transfer(msg.value);\r\n        // Trigger an event\r\n        emit StoryPurchased(storyCount, _story.title, _story.storyText, _story.price, msg.sender, true);\r\n    }\r\n}",
  "sourcePath": "D:\\Projects\\Kulfy\\Code\\manam-store-1\\src\\contracts\\Kahaaniya.sol",
  "compiler": {
    "name": "solc",
    "version": "0.5.16+commit.9c3226ce.Emscripten.clang"
  },
  "schemaVersion": "3.4.3",
  "updatedAt": "2021-09-27T04:57:59.240Z",
  "devdoc": {
    "methods": {}
  },
  "userdoc": {
    "methods": {}
  }
}